{
  "_format": "hh-sol-artifact-1",
  "contractName": "MasterChef",
  "sourceName": "contracts/MasterChef.sol",
  "abi": [
    {
      "inputs": [
        {
          "internalType": "contract RedDotToken",
          "name": "_redDot",
          "type": "address"
        },
        {
          "internalType": "address",
          "name": "_devaddr",
          "type": "address"
        },
        {
          "internalType": "uint256",
          "name": "_redDotPerBlock",
          "type": "uint256"
        },
        {
          "internalType": "uint256",
          "name": "_startBlock",
          "type": "uint256"
        }
      ],
      "stateMutability": "nonpayable",
      "type": "constructor"
    },
    {
      "anonymous": false,
      "inputs": [
        {
          "indexed": true,
          "internalType": "address",
          "name": "user",
          "type": "address"
        },
        {
          "indexed": true,
          "internalType": "uint256",
          "name": "pid",
          "type": "uint256"
        },
        {
          "indexed": false,
          "internalType": "uint256",
          "name": "amount",
          "type": "uint256"
        }
      ],
      "name": "Deposit",
      "type": "event"
    },
    {
      "anonymous": false,
      "inputs": [
        {
          "indexed": true,
          "internalType": "address",
          "name": "user",
          "type": "address"
        },
        {
          "indexed": true,
          "internalType": "uint256",
          "name": "pid",
          "type": "uint256"
        },
        {
          "indexed": false,
          "internalType": "uint256",
          "name": "amount",
          "type": "uint256"
        }
      ],
      "name": "EmergencyWithdraw",
      "type": "event"
    },
    {
      "anonymous": false,
      "inputs": [
        {
          "indexed": true,
          "internalType": "address",
          "name": "previousOwner",
          "type": "address"
        },
        {
          "indexed": true,
          "internalType": "address",
          "name": "newOwner",
          "type": "address"
        }
      ],
      "name": "OwnershipTransferred",
      "type": "event"
    },
    {
      "anonymous": false,
      "inputs": [
        {
          "indexed": true,
          "internalType": "address",
          "name": "user",
          "type": "address"
        },
        {
          "indexed": true,
          "internalType": "uint256",
          "name": "pid",
          "type": "uint256"
        },
        {
          "indexed": false,
          "internalType": "uint256",
          "name": "amount",
          "type": "uint256"
        }
      ],
      "name": "Withdraw",
      "type": "event"
    },
    {
      "inputs": [],
      "name": "BONUS_MULTIPLIER",
      "outputs": [
        {
          "internalType": "uint256",
          "name": "",
          "type": "uint256"
        }
      ],
      "stateMutability": "view",
      "type": "function"
    },
    {
      "inputs": [
        {
          "internalType": "uint256",
          "name": "_allocPoint",
          "type": "uint256"
        },
        {
          "internalType": "contract IERC20",
          "name": "_lpToken",
          "type": "address"
        },
        {
          "internalType": "bool",
          "name": "_withUpdate",
          "type": "bool"
        }
      ],
      "name": "add",
      "outputs": [],
      "stateMutability": "nonpayable",
      "type": "function"
    },
    {
      "inputs": [
        {
          "internalType": "uint256",
          "name": "_pid",
          "type": "uint256"
        },
        {
          "internalType": "uint256",
          "name": "_amount",
          "type": "uint256"
        }
      ],
      "name": "claimReward",
      "outputs": [],
      "stateMutability": "nonpayable",
      "type": "function"
    },
    {
      "inputs": [
        {
          "internalType": "uint256",
          "name": "_pid",
          "type": "uint256"
        },
        {
          "internalType": "uint256",
          "name": "_amount",
          "type": "uint256"
        }
      ],
      "name": "deposit",
      "outputs": [],
      "stateMutability": "nonpayable",
      "type": "function"
    },
    {
      "inputs": [
        {
          "internalType": "address",
          "name": "_devaddr",
          "type": "address"
        }
      ],
      "name": "dev",
      "outputs": [],
      "stateMutability": "nonpayable",
      "type": "function"
    },
    {
      "inputs": [],
      "name": "devaddr",
      "outputs": [
        {
          "internalType": "address",
          "name": "",
          "type": "address"
        }
      ],
      "stateMutability": "view",
      "type": "function"
    },
    {
      "inputs": [
        {
          "internalType": "uint256",
          "name": "_pid",
          "type": "uint256"
        }
      ],
      "name": "emergencyWithdraw",
      "outputs": [],
      "stateMutability": "nonpayable",
      "type": "function"
    },
    {
      "inputs": [
        {
          "internalType": "uint256",
          "name": "_amount",
          "type": "uint256"
        }
      ],
      "name": "enterStaking",
      "outputs": [],
      "stateMutability": "nonpayable",
      "type": "function"
    },
    {
      "inputs": [],
      "name": "getCurrentMultiplier",
      "outputs": [
        {
          "internalType": "uint256",
          "name": "",
          "type": "uint256"
        }
      ],
      "stateMutability": "view",
      "type": "function"
    },
    {
      "inputs": [
        {
          "internalType": "uint256",
          "name": "_from",
          "type": "uint256"
        },
        {
          "internalType": "uint256",
          "name": "_to",
          "type": "uint256"
        }
      ],
      "name": "getMultiplier",
      "outputs": [
        {
          "internalType": "uint256",
          "name": "",
          "type": "uint256"
        }
      ],
      "stateMutability": "view",
      "type": "function"
    },
    {
      "inputs": [],
      "name": "getPoolInfo",
      "outputs": [
        {
          "components": [
            {
              "internalType": "contract IERC20",
              "name": "lpToken",
              "type": "address"
            },
            {
              "internalType": "uint256",
              "name": "allocPoint",
              "type": "uint256"
            },
            {
              "internalType": "uint256",
              "name": "lastRewardBlock",
              "type": "uint256"
            },
            {
              "internalType": "uint256",
              "name": "accRedDotPerShare",
              "type": "uint256"
            }
          ],
          "internalType": "struct MasterChef.PoolInfo[]",
          "name": "",
          "type": "tuple[]"
        }
      ],
      "stateMutability": "view",
      "type": "function"
    },
    {
      "inputs": [],
      "name": "getRDXBalance",
      "outputs": [
        {
          "internalType": "uint256",
          "name": "",
          "type": "uint256"
        }
      ],
      "stateMutability": "view",
      "type": "function"
    },
    {
      "inputs": [
        {
          "internalType": "uint256",
          "name": "_pid",
          "type": "uint256"
        }
      ],
      "name": "getUserAmountDeposit",
      "outputs": [
        {
          "internalType": "uint256",
          "name": "",
          "type": "uint256"
        }
      ],
      "stateMutability": "view",
      "type": "function"
    },
    {
      "inputs": [
        {
          "internalType": "uint256",
          "name": "_amount",
          "type": "uint256"
        }
      ],
      "name": "leaveStaking",
      "outputs": [],
      "stateMutability": "nonpayable",
      "type": "function"
    },
    {
      "inputs": [],
      "name": "massUpdatePools",
      "outputs": [],
      "stateMutability": "nonpayable",
      "type": "function"
    },
    {
      "inputs": [
        {
          "internalType": "uint256",
          "name": "_pid",
          "type": "uint256"
        }
      ],
      "name": "migrate",
      "outputs": [],
      "stateMutability": "nonpayable",
      "type": "function"
    },
    {
      "inputs": [],
      "name": "migrator",
      "outputs": [
        {
          "internalType": "contract IMigratorChef",
          "name": "",
          "type": "address"
        }
      ],
      "stateMutability": "view",
      "type": "function"
    },
    {
      "inputs": [],
      "name": "owner",
      "outputs": [
        {
          "internalType": "address",
          "name": "",
          "type": "address"
        }
      ],
      "stateMutability": "view",
      "type": "function"
    },
    {
      "inputs": [
        {
          "internalType": "uint256",
          "name": "_pid",
          "type": "uint256"
        },
        {
          "internalType": "address",
          "name": "_user",
          "type": "address"
        }
      ],
      "name": "pendingRedDot",
      "outputs": [
        {
          "internalType": "uint256",
          "name": "",
          "type": "uint256"
        }
      ],
      "stateMutability": "view",
      "type": "function"
    },
    {
      "inputs": [
        {
          "internalType": "uint256",
          "name": "",
          "type": "uint256"
        }
      ],
      "name": "poolInfo",
      "outputs": [
        {
          "internalType": "contract IERC20",
          "name": "lpToken",
          "type": "address"
        },
        {
          "internalType": "uint256",
          "name": "allocPoint",
          "type": "uint256"
        },
        {
          "internalType": "uint256",
          "name": "lastRewardBlock",
          "type": "uint256"
        },
        {
          "internalType": "uint256",
          "name": "accRedDotPerShare",
          "type": "uint256"
        }
      ],
      "stateMutability": "view",
      "type": "function"
    },
    {
      "inputs": [],
      "name": "poolLength",
      "outputs": [
        {
          "internalType": "uint256",
          "name": "",
          "type": "uint256"
        }
      ],
      "stateMutability": "view",
      "type": "function"
    },
    {
      "inputs": [],
      "name": "redDot",
      "outputs": [
        {
          "internalType": "contract RedDotToken",
          "name": "",
          "type": "address"
        }
      ],
      "stateMutability": "view",
      "type": "function"
    },
    {
      "inputs": [],
      "name": "redDotPerBlock",
      "outputs": [
        {
          "internalType": "uint256",
          "name": "",
          "type": "uint256"
        }
      ],
      "stateMutability": "view",
      "type": "function"
    },
    {
      "inputs": [],
      "name": "renounceOwnership",
      "outputs": [],
      "stateMutability": "nonpayable",
      "type": "function"
    },
    {
      "inputs": [
        {
          "internalType": "uint256",
          "name": "_pid",
          "type": "uint256"
        },
        {
          "internalType": "uint256",
          "name": "_allocPoint",
          "type": "uint256"
        },
        {
          "internalType": "bool",
          "name": "_withUpdate",
          "type": "bool"
        }
      ],
      "name": "set",
      "outputs": [],
      "stateMutability": "nonpayable",
      "type": "function"
    },
    {
      "inputs": [
        {
          "internalType": "contract IMigratorChef",
          "name": "_migrator",
          "type": "address"
        }
      ],
      "name": "setMigrator",
      "outputs": [],
      "stateMutability": "nonpayable",
      "type": "function"
    },
    {
      "inputs": [],
      "name": "startBlock",
      "outputs": [
        {
          "internalType": "uint256",
          "name": "",
          "type": "uint256"
        }
      ],
      "stateMutability": "view",
      "type": "function"
    },
    {
      "inputs": [],
      "name": "totalAllocPoint",
      "outputs": [
        {
          "internalType": "uint256",
          "name": "",
          "type": "uint256"
        }
      ],
      "stateMutability": "view",
      "type": "function"
    },
    {
      "inputs": [
        {
          "internalType": "address",
          "name": "newOwner",
          "type": "address"
        }
      ],
      "name": "transferOwnership",
      "outputs": [],
      "stateMutability": "nonpayable",
      "type": "function"
    },
    {
      "inputs": [
        {
          "internalType": "address",
          "name": "RDXNewOwner",
          "type": "address"
        }
      ],
      "name": "transferRDXOwnerShip",
      "outputs": [],
      "stateMutability": "nonpayable",
      "type": "function"
    },
    {
      "inputs": [
        {
          "internalType": "uint256",
          "name": "multiplierNumber",
          "type": "uint256"
        }
      ],
      "name": "updateMultiplier",
      "outputs": [],
      "stateMutability": "nonpayable",
      "type": "function"
    },
    {
      "inputs": [
        {
          "internalType": "uint256",
          "name": "_pid",
          "type": "uint256"
        }
      ],
      "name": "updatePool",
      "outputs": [],
      "stateMutability": "nonpayable",
      "type": "function"
    },
    {
      "inputs": [
        {
          "internalType": "uint256",
          "name": "",
          "type": "uint256"
        },
        {
          "internalType": "address",
          "name": "",
          "type": "address"
        }
      ],
      "name": "userInfo",
      "outputs": [
        {
          "internalType": "uint256",
          "name": "amount",
          "type": "uint256"
        },
        {
          "internalType": "uint256",
          "name": "rewardDebt",
          "type": "uint256"
        }
      ],
      "stateMutability": "view",
      "type": "function"
    },
    {
      "inputs": [
        {
          "internalType": "uint256",
          "name": "_pid",
          "type": "uint256"
        },
        {
          "internalType": "uint256",
          "name": "_amount",
          "type": "uint256"
        }
      ],
      "name": "withdraw",
      "outputs": [],
      "stateMutability": "nonpayable",
      "type": "function"
    }
  ],
  "bytecode": "0x6080604052600160045560006008553480156200001b57600080fd5b5060405162004b9f38038062004b9f8339818101604052810190620000419190620002af565b6000620000536200026260201b60201c565b9050806000806101000a81548173ffffffffffffffffffffffffffffffffffffffff021916908373ffffffffffffffffffffffffffffffffffffffff1602179055508073ffffffffffffffffffffffffffffffffffffffff16600073ffffffffffffffffffffffffffffffffffffffff167f8be0079c531659141344cd1fd0a4f28419497f9722a3daafe3b4186f6b6457e060405160405180910390a35083600160006101000a81548173ffffffffffffffffffffffffffffffffffffffff021916908373ffffffffffffffffffffffffffffffffffffffff16021790555082600260006101000a81548173ffffffffffffffffffffffffffffffffffffffff021916908373ffffffffffffffffffffffffffffffffffffffff1602179055508160038190555080600981905550600660405180608001604052808673ffffffffffffffffffffffffffffffffffffffff1681526020016103e8815260200160095481526020016000815250908060018154018082558091505060019003906000526020600020906004020160009091909190915060008201518160000160006101000a81548173ffffffffffffffffffffffffffffffffffffffff021916908373ffffffffffffffffffffffffffffffffffffffff16021790555060208201518160010155604082015181600201556060820151816003015550506103e860088190555050505050620003bb565b600033905090565b6000815190506200027b816200036d565b92915050565b600081519050620002928162000387565b92915050565b600081519050620002a981620003a1565b92915050565b60008060008060808587031215620002c657600080fd5b6000620002d68782880162000281565b9450506020620002e9878288016200026a565b9350506040620002fc8782880162000298565b92505060606200030f8782880162000298565b91505092959194509250565b6000620003288262000343565b9050919050565b60006200033c826200031b565b9050919050565b600073ffffffffffffffffffffffffffffffffffffffff82169050919050565b6000819050919050565b62000378816200031b565b81146200038457600080fd5b50565b62000392816200032f565b81146200039e57600080fd5b50565b620003ac8162000363565b8114620003b857600080fd5b50565b6147d480620003cb6000396000f3fe608060405234801561001057600080fd5b50600436106102065760003560e01c806360246c881161011a5780638d88a90e116100ad578063b74cf4d11161007c578063b74cf4d11461057b578063bd7adc1014610599578063d49e77cd146105c9578063e2bbb158146105e7578063f2fde38b1461060357610206565b80638d88a90e146104e05780638da5cb5b146104fc5780638dbb1e3a1461051a57806393f1a40b1461054a57610206565b80637cd07e47116100e95780637cd07e471461046c5780637d69922e1461048a57806386bb8f37146104a65780638aa28550146104c257610206565b806360246c881461041e578063630b5ba11461043c57806364482f7914610446578063715018a61461046257610206565b80632b63c3001161019d57806347e055261161016c57806347e055261461038e57806348cd4cb1146103ac57806351eb05a6146103ca5780635312ea8e146103e65780635ffe61461461040257610206565b80632b63c3001461031c57806341441d3b1461033a578063441a3e7014610356578063454b06081461037257610206565b806317caf6f1116101d957806317caf6f1146102965780631eaaa045146102b457806323cf3118146102d0578063297f2c01146102ec57610206565b8063081e3eda1461020b5780631058d2811461022957806315158411146102455780631526fe2714610263575b600080fd5b61021361061f565b60405161022091906143a4565b60405180910390f35b610243600480360381019061023e919061384b565b61062c565b005b61024d610886565b60405161025a91906143a4565b60405180910390f35b61027d6004803603810190610278919061384b565b61088c565b60405161028d9493929190614107565b60405180910390f35b61029e6108ec565b6040516102ab91906143a4565b60405180910390f35b6102ce60048036038101906102c991906138d9565b6108f2565b005b6102ea60048036038101906102e59190613822565b610aa0565b005b6103066004803603810190610301919061389d565b610b79565b60405161031391906143a4565b60405180910390f35b610324610dd3565b60405161033191906143a4565b60405180910390f35b610354600480360381019061034f919061384b565b610ddd565b005b610370600480360381019061036b9190613928565b611000565b005b61038c6004803603810190610387919061384b565b61129c565b005b610396611642565b6040516103a39190614167565b60405180910390f35b6103b4611668565b6040516103c191906143a4565b60405180910390f35b6103e460048036038101906103df919061384b565b61166e565b005b61040060048036038101906103fb919061384b565b611996565b005b61041c6004803603810190610417919061384b565b611af5565b005b610426611b94565b60405161043391906140ca565b60405180910390f35b610444611c67565b005b610460600480360381019061045b9190613964565b611c9a565b005b61046a611e21565b005b610474611f74565b604051610481919061414c565b60405180910390f35b6104a4600480360381019061049f91906137a7565b611f9a565b005b6104c060048036038101906104bb9190613928565b61212f565b005b6104ca61254b565b6040516104d791906143a4565b60405180910390f35b6104fa60048036038101906104f591906137a7565b612551565b005b610504612625565b6040516105119190614026565b60405180910390f35b610534600480360381019061052f9190613928565b61264e565b60405161054191906143a4565b60405180910390f35b610564600480360381019061055f919061389d565b61267f565b6040516105729291906143bf565b60405180910390f35b6105836126b0565b60405161059091906143a4565b60405180910390f35b6105b360048036038101906105ae919061384b565b612767565b6040516105c091906143a4565b60405180910390f35b6105d16127c9565b6040516105de9190614026565b60405180910390f35b61060160048036038101906105fc9190613928565b6127ef565b005b61061d600480360381019061061891906137a7565b612a54565b005b6000600680549050905090565b60006006600081548110610669577f4e487b7100000000000000000000000000000000000000000000000000000000600052603260045260246000fd5b9060005260206000209060040201905060006007600080815260200190815260200160002060003373ffffffffffffffffffffffffffffffffffffffff1673ffffffffffffffffffffffffffffffffffffffff16815260200190815260200160002090508281600001541015610714576040517f08c379a000000000000000000000000000000000000000000000000000000000815260040161070b906142e4565b60405180910390fd5b61071e600061166e565b6000610768826001015461075a64e8d4a5100061074c87600301548760000154612af590919063ffffffff16565b612b7090919063ffffffff16565b612bba90919063ffffffff16565b9050600081111561077e5761077d3382612c04565b5b60008411156107f65761079e848360000154612bba90919063ffffffff16565b82600001819055506107f533858560000160009054906101000a900473ffffffffffffffffffffffffffffffffffffffff1673ffffffffffffffffffffffffffffffffffffffff16612e269092919063ffffffff16565b5b61082864e8d4a5100061081a85600301548560000154612af590919063ffffffff16565b612b7090919063ffffffff16565b826001018190555060003373ffffffffffffffffffffffffffffffffffffffff167ff279e6a1f5e320cca91135676d9cb6e44ca8a08c0b88342bcdb1144f6511b5688660405161087891906143a4565b60405180910390a350505050565b60035481565b6006818154811061089c57600080fd5b90600052602060002090600402016000915090508060000160009054906101000a900473ffffffffffffffffffffffffffffffffffffffff16908060010154908060020154908060030154905084565b60085481565b6108fa612eac565b73ffffffffffffffffffffffffffffffffffffffff1660008054906101000a900473ffffffffffffffffffffffffffffffffffffffff1673ffffffffffffffffffffffffffffffffffffffff1614610987576040517f08c379a000000000000000000000000000000000000000000000000000000000815260040161097e90614284565b60405180910390fd5b801561099657610995611c67565b5b600060095443116109a9576009546109ab565b435b90506109c284600854612eb490919063ffffffff16565b600881905550600660405180608001604052808573ffffffffffffffffffffffffffffffffffffffff1681526020018681526020018381526020016000815250908060018154018082558091505060019003906000526020600020906004020160009091909190915060008201518160000160006101000a81548173ffffffffffffffffffffffffffffffffffffffff021916908373ffffffffffffffffffffffffffffffffffffffff1602179055506020820151816001015560408201518160020155606082015181600301555050610a9a612f12565b50505050565b610aa8612eac565b73ffffffffffffffffffffffffffffffffffffffff1660008054906101000a900473ffffffffffffffffffffffffffffffffffffffff1673ffffffffffffffffffffffffffffffffffffffff1614610b35576040517f08c379a0000000000000000000000000000000000000000000000000000000008152600401610b2c90614284565b60405180910390fd5b80600560006101000a81548173ffffffffffffffffffffffffffffffffffffffff021916908373ffffffffffffffffffffffffffffffffffffffff16021790555050565b60008060068481548110610bb6577f4e487b7100000000000000000000000000000000000000000000000000000000600052603260045260246000fd5b9060005260206000209060040201905060006007600086815260200190815260200160002060008573ffffffffffffffffffffffffffffffffffffffff1673ffffffffffffffffffffffffffffffffffffffff168152602001908152602001600020905060008260030154905060008360000160009054906101000a900473ffffffffffffffffffffffffffffffffffffffff1673ffffffffffffffffffffffffffffffffffffffff166370a08231306040518263ffffffff1660e01b8152600401610c829190614026565b60206040518083038186803b158015610c9a57600080fd5b505afa158015610cae573d6000803e3d6000fd5b505050506040513d601f19601f82011682018060405250810190610cd29190613874565b9050836002015443118015610ce8575060008114155b15610d83576000610cfd85600201544361264e565b90506000610d40600854610d328860010154610d2460035487612af590919063ffffffff16565b612af590919063ffffffff16565b612b7090919063ffffffff16565b9050610d7e610d6f84610d6164e8d4a5100085612af590919063ffffffff16565b612b7090919063ffffffff16565b85612eb490919063ffffffff16565b935050505b610dc78360010154610db964e8d4a51000610dab868860000154612af590919063ffffffff16565b612b7090919063ffffffff16565b612bba90919063ffffffff16565b94505050505092915050565b6000600454905090565b60006006600081548110610e1a577f4e487b7100000000000000000000000000000000000000000000000000000000600052603260045260246000fd5b9060005260206000209060040201905060006007600080815260200190815260200160002060003373ffffffffffffffffffffffffffffffffffffffff1673ffffffffffffffffffffffffffffffffffffffff1681526020019081526020016000209050610e88600061166e565b600081600001541115610ef7576000610edf8260010154610ed164e8d4a51000610ec387600301548760000154612af590919063ffffffff16565b612b7090919063ffffffff16565b612bba90919063ffffffff16565b90506000811115610ef557610ef43382612c04565b5b505b6000831115610f7157610f513330858560000160009054906101000a900473ffffffffffffffffffffffffffffffffffffffff1673ffffffffffffffffffffffffffffffffffffffff1661308b909392919063ffffffff16565b610f68838260000154612eb490919063ffffffff16565b81600001819055505b610fa364e8d4a51000610f9584600301548460000154612af590919063ffffffff16565b612b7090919063ffffffff16565b816001018190555060003373ffffffffffffffffffffffffffffffffffffffff167f90890809c654f11d6e72a28fa60149770a0d11ec6c92319d6ceb2bb0a4ea1a1585604051610ff391906143a4565b60405180910390a3505050565b6000821415611044576040517f08c379a000000000000000000000000000000000000000000000000000000000815260040161103b90614304565b60405180910390fd5b600060068381548110611080577f4e487b7100000000000000000000000000000000000000000000000000000000600052603260045260246000fd5b9060005260206000209060040201905060006007600085815260200190815260200160002060003373ffffffffffffffffffffffffffffffffffffffff1673ffffffffffffffffffffffffffffffffffffffff1681526020019081526020016000209050828160000154101561112b576040517f08c379a0000000000000000000000000000000000000000000000000000000008152600401611122906142e4565b60405180910390fd5b6111348461166e565b600061117e826001015461117064e8d4a5100061116287600301548760000154612af590919063ffffffff16565b612b7090919063ffffffff16565b612bba90919063ffffffff16565b90506000811115611194576111933382612c04565b5b600084111561120c576111b4848360000154612bba90919063ffffffff16565b826000018190555061120b33858560000160009054906101000a900473ffffffffffffffffffffffffffffffffffffffff1673ffffffffffffffffffffffffffffffffffffffff16612e269092919063ffffffff16565b5b61123e64e8d4a5100061123085600301548560000154612af590919063ffffffff16565b612b7090919063ffffffff16565b8260010181905550843373ffffffffffffffffffffffffffffffffffffffff167ff279e6a1f5e320cca91135676d9cb6e44ca8a08c0b88342bcdb1144f6511b5688660405161128d91906143a4565b60405180910390a35050505050565b600073ffffffffffffffffffffffffffffffffffffffff16600560009054906101000a900473ffffffffffffffffffffffffffffffffffffffff1673ffffffffffffffffffffffffffffffffffffffff16141561132e576040517f08c379a000000000000000000000000000000000000000000000000000000000815260040161132590614384565b60405180910390fd5b60006006828154811061136a577f4e487b7100000000000000000000000000000000000000000000000000000000600052603260045260246000fd5b9060005260206000209060040201905060008160000160009054906101000a900473ffffffffffffffffffffffffffffffffffffffff16905060008173ffffffffffffffffffffffffffffffffffffffff166370a08231306040518263ffffffff1660e01b81526004016113de9190614026565b60206040518083038186803b1580156113f657600080fd5b505afa15801561140a573d6000803e3d6000fd5b505050506040513d601f19601f8201168201806040525081019061142e9190613874565b905061147d600560009054906101000a900473ffffffffffffffffffffffffffffffffffffffff16828473ffffffffffffffffffffffffffffffffffffffff166131149092919063ffffffff16565b6000600560009054906101000a900473ffffffffffffffffffffffffffffffffffffffff1673ffffffffffffffffffffffffffffffffffffffff1663ce5494bb846040518263ffffffff1660e01b81526004016114da91906140ec565b602060405180830381600087803b1580156114f457600080fd5b505af1158015611508573d6000803e3d6000fd5b505050506040513d601f19601f8201168201806040525081019061152c91906137f9565b90508073ffffffffffffffffffffffffffffffffffffffff166370a08231306040518263ffffffff1660e01b81526004016115679190614026565b60206040518083038186803b15801561157f57600080fd5b505afa158015611593573d6000803e3d6000fd5b505050506040513d601f19601f820116820180604052508101906115b79190613874565b82146115f8576040517f08c379a00000000000000000000000000000000000000000000000000000000081526004016115ef90614344565b60405180910390fd5b808460000160006101000a81548173ffffffffffffffffffffffffffffffffffffffff021916908373ffffffffffffffffffffffffffffffffffffffff1602179055505050505050565b600160009054906101000a900473ffffffffffffffffffffffffffffffffffffffff1681565b60095481565b6000600682815481106116aa577f4e487b7100000000000000000000000000000000000000000000000000000000600052603260045260246000fd5b90600052602060002090600402019050806002015443116116cb5750611993565b60008160000160009054906101000a900473ffffffffffffffffffffffffffffffffffffffff1673ffffffffffffffffffffffffffffffffffffffff166370a08231306040518263ffffffff1660e01b815260040161172a9190614026565b60206040518083038186803b15801561174257600080fd5b505afa158015611756573d6000803e3d6000fd5b505050506040513d601f19601f8201168201806040525081019061177a9190613874565b90506000811415611795574382600201819055505050611993565b60006117a583600201544361264e565b905060006117e86008546117da86600101546117cc60035487612af590919063ffffffff16565b612af590919063ffffffff16565b612b7090919063ffffffff16565b9050600160009054906101000a900473ffffffffffffffffffffffffffffffffffffffff1673ffffffffffffffffffffffffffffffffffffffff166340c10f19600260009054906101000a900473ffffffffffffffffffffffffffffffffffffffff1661185f600a85612b7090919063ffffffff16565b6040518363ffffffff1660e01b815260040161187c9291906140a1565b600060405180830381600087803b15801561189657600080fd5b505af11580156118aa573d6000803e3d6000fd5b50505050600160009054906101000a900473ffffffffffffffffffffffffffffffffffffffff1673ffffffffffffffffffffffffffffffffffffffff166340c10f1930836040518363ffffffff1660e01b815260040161190b9291906140a1565b600060405180830381600087803b15801561192557600080fd5b505af1158015611939573d6000803e3d6000fd5b5050505061197d61196a8461195c64e8d4a5100085612af590919063ffffffff16565b612b7090919063ffffffff16565b8560030154612eb490919063ffffffff16565b8460030181905550438460020181905550505050505b50565b6000600682815481106119d2577f4e487b7100000000000000000000000000000000000000000000000000000000600052603260045260246000fd5b9060005260206000209060040201905060006007600084815260200190815260200160002060003373ffffffffffffffffffffffffffffffffffffffff1673ffffffffffffffffffffffffffffffffffffffff1681526020019081526020016000209050611a893382600001548460000160009054906101000a900473ffffffffffffffffffffffffffffffffffffffff1673ffffffffffffffffffffffffffffffffffffffff16612e269092919063ffffffff16565b823373ffffffffffffffffffffffffffffffffffffffff167fbb757047c2b5f3974fe26b7c10f732e7bce710b0952a71082702781e62ae05958360000154604051611ad491906143a4565b60405180910390a36000816000018190555060008160010181905550505050565b611afd612eac565b73ffffffffffffffffffffffffffffffffffffffff1660008054906101000a900473ffffffffffffffffffffffffffffffffffffffff1673ffffffffffffffffffffffffffffffffffffffff1614611b8a576040517f08c379a0000000000000000000000000000000000000000000000000000000008152600401611b8190614284565b60405180910390fd5b8060048190555050565b60606006805480602002602001604051908101604052809291908181526020016000905b82821015611c5e57838290600052602060002090600402016040518060800160405290816000820160009054906101000a900473ffffffffffffffffffffffffffffffffffffffff1673ffffffffffffffffffffffffffffffffffffffff1673ffffffffffffffffffffffffffffffffffffffff168152602001600182015481526020016002820154815260200160038201548152505081526020019060010190611bb8565b50505050905090565b6000600680549050905060005b81811015611c9657611c858161166e565b80611c8f90614673565b9050611c74565b5050565b611ca2612eac565b73ffffffffffffffffffffffffffffffffffffffff1660008054906101000a900473ffffffffffffffffffffffffffffffffffffffff1673ffffffffffffffffffffffffffffffffffffffff1614611d2f576040517f08c379a0000000000000000000000000000000000000000000000000000000008152600401611d2690614284565b60405180910390fd5b8015611d3e57611d3d611c67565b5b600060068481548110611d7a577f4e487b7100000000000000000000000000000000000000000000000000000000600052603260045260246000fd5b90600052602060002090600402016001015490508260068581548110611dc9577f4e487b7100000000000000000000000000000000000000000000000000000000600052603260045260246000fd5b906000526020600020906004020160010181905550828114611e1b57611e0c83611dfe83600854612bba90919063ffffffff16565b612eb490919063ffffffff16565b600881905550611e1a612f12565b5b50505050565b611e29612eac565b73ffffffffffffffffffffffffffffffffffffffff1660008054906101000a900473ffffffffffffffffffffffffffffffffffffffff1673ffffffffffffffffffffffffffffffffffffffff1614611eb6576040517f08c379a0000000000000000000000000000000000000000000000000000000008152600401611ead90614284565b60405180910390fd5b600073ffffffffffffffffffffffffffffffffffffffff1660008054906101000a900473ffffffffffffffffffffffffffffffffffffffff1673ffffffffffffffffffffffffffffffffffffffff167f8be0079c531659141344cd1fd0a4f28419497f9722a3daafe3b4186f6b6457e060405160405180910390a360008060006101000a81548173ffffffffffffffffffffffffffffffffffffffff021916908373ffffffffffffffffffffffffffffffffffffffff160217905550565b600560009054906101000a900473ffffffffffffffffffffffffffffffffffffffff1681565b611fa2612eac565b73ffffffffffffffffffffffffffffffffffffffff1660008054906101000a900473ffffffffffffffffffffffffffffffffffffffff1673ffffffffffffffffffffffffffffffffffffffff161461202f576040517f08c379a000000000000000000000000000000000000000000000000000000000815260040161202690614284565b60405180910390fd5b600073ffffffffffffffffffffffffffffffffffffffff168173ffffffffffffffffffffffffffffffffffffffff16141561209f576040517f08c379a0000000000000000000000000000000000000000000000000000000008152600401612096906141e4565b60405180910390fd5b600160009054906101000a900473ffffffffffffffffffffffffffffffffffffffff1673ffffffffffffffffffffffffffffffffffffffff1663f2fde38b826040518263ffffffff1660e01b81526004016120fa9190614026565b600060405180830381600087803b15801561211457600080fd5b505af1158015612128573d6000803e3d6000fd5b5050505050565b6000821415612173576040517f08c379a000000000000000000000000000000000000000000000000000000000815260040161216a906142a4565b60405180910390fd5b6000600683815481106121af577f4e487b7100000000000000000000000000000000000000000000000000000000600052603260045260246000fd5b9060005260206000209060040201905060006007600085815260200190815260200160002060003373ffffffffffffffffffffffffffffffffffffffff1673ffffffffffffffffffffffffffffffffffffffff168152602001908152602001600020905061221c8461166e565b60008260030154905060008360000160009054906101000a900473ffffffffffffffffffffffffffffffffffffffff1673ffffffffffffffffffffffffffffffffffffffff166370a08231306040518263ffffffff1660e01b81526004016122849190614026565b60206040518083038186803b15801561229c57600080fd5b505afa1580156122b0573d6000803e3d6000fd5b505050506040513d601f19601f820116820180604052508101906122d49190613874565b90508360020154431180156122ea575060008114155b156123855760006122ff85600201544361264e565b90506000612342600854612334886001015461232660035487612af590919063ffffffff16565b612af590919063ffffffff16565b612b7090919063ffffffff16565b90506123806123718461236364e8d4a5100085612af590919063ffffffff16565b612b7090919063ffffffff16565b85612eb490919063ffffffff16565b935050505b60006123cb84600101546123bd64e8d4a510006123af878960000154612af590919063ffffffff16565b612b7090919063ffffffff16565b612bba90919063ffffffff16565b90506000600160009054906101000a900473ffffffffffffffffffffffffffffffffffffffff1673ffffffffffffffffffffffffffffffffffffffff166370a08231306040518263ffffffff1660e01b815260040161242a9190614026565b60206040518083038186803b15801561244257600080fd5b505afa158015612456573d6000803e3d6000fd5b505050506040513d601f19601f8201168201806040525081019061247a9190613874565b9050818711156124bf576040517f08c379a00000000000000000000000000000000000000000000000000000000081526004016124b6906141a4565b60405180910390fd5b80871115612502576040517f08c379a00000000000000000000000000000000000000000000000000000000081526004016124f9906141c4565b60405180910390fd5b6000871180156125125750600082115b156125415761252e878660010154612eb490919063ffffffff16565b85600101819055506125403388612c04565b5b5050505050505050565b60045481565b600260009054906101000a900473ffffffffffffffffffffffffffffffffffffffff1673ffffffffffffffffffffffffffffffffffffffff163373ffffffffffffffffffffffffffffffffffffffff16146125e1576040517f08c379a00000000000000000000000000000000000000000000000000000000081526004016125d890614244565b60405180910390fd5b80600260006101000a81548173ffffffffffffffffffffffffffffffffffffffff021916908373ffffffffffffffffffffffffffffffffffffffff16021790555050565b60008060009054906101000a900473ffffffffffffffffffffffffffffffffffffffff16905090565b60006126776004546126698585612bba90919063ffffffff16565b612af590919063ffffffff16565b905092915050565b6007602052816000526040600020602052806000526040600020600091509150508060000154908060010154905082565b600080600160009054906101000a900473ffffffffffffffffffffffffffffffffffffffff1673ffffffffffffffffffffffffffffffffffffffff166370a08231306040518263ffffffff1660e01b815260040161270e9190614026565b60206040518083038186803b15801561272657600080fd5b505afa15801561273a573d6000803e3d6000fd5b505050506040513d601f19601f8201168201806040525081019061275e9190613874565b90508091505090565b6000806007600084815260200190815260200160002060003373ffffffffffffffffffffffffffffffffffffffff1673ffffffffffffffffffffffffffffffffffffffff16815260200190815260200160002060000154905080915050919050565b600260009054906101000a900473ffffffffffffffffffffffffffffffffffffffff1681565b6000821415612833576040517f08c379a000000000000000000000000000000000000000000000000000000000815260040161282a906142a4565b60405180910390fd5b60006006838154811061286f577f4e487b7100000000000000000000000000000000000000000000000000000000600052603260045260246000fd5b9060005260206000209060040201905060006007600085815260200190815260200160002060003373ffffffffffffffffffffffffffffffffffffffff1673ffffffffffffffffffffffffffffffffffffffff16815260200190815260200160002090506128dc8461166e565b60008160000154111561294b576000612933826001015461292564e8d4a5100061291787600301548760000154612af590919063ffffffff16565b612b7090919063ffffffff16565b612bba90919063ffffffff16565b90506000811115612949576129483382612c04565b5b505b60008311156129c5576129a53330858560000160009054906101000a900473ffffffffffffffffffffffffffffffffffffffff1673ffffffffffffffffffffffffffffffffffffffff1661308b909392919063ffffffff16565b6129bc838260000154612eb490919063ffffffff16565b81600001819055505b6129f764e8d4a510006129e984600301548460000154612af590919063ffffffff16565b612b7090919063ffffffff16565b8160010181905550833373ffffffffffffffffffffffffffffffffffffffff167f90890809c654f11d6e72a28fa60149770a0d11ec6c92319d6ceb2bb0a4ea1a1585604051612a4691906143a4565b60405180910390a350505050565b612a5c612eac565b73ffffffffffffffffffffffffffffffffffffffff1660008054906101000a900473ffffffffffffffffffffffffffffffffffffffff1673ffffffffffffffffffffffffffffffffffffffff1614612ae9576040517f08c379a0000000000000000000000000000000000000000000000000000000008152600401612ae090614284565b60405180910390fd5b612af281613272565b50565b600080831415612b085760009050612b6a565b60008284612b1691906144da565b9050828482612b2591906144a9565b14612b65576040517f08c379a0000000000000000000000000000000000000000000000000000000008152600401612b5c90614264565b60405180910390fd5b809150505b92915050565b6000612bb283836040518060400160405280601a81526020017f536166654d6174683a206469766973696f6e206279207a65726f00000000000081525061339f565b905092915050565b6000612bfc83836040518060400160405280601e81526020017f536166654d6174683a207375627472616374696f6e206f766572666c6f770000815250613402565b905092915050565b6000600160009054906101000a900473ffffffffffffffffffffffffffffffffffffffff1673ffffffffffffffffffffffffffffffffffffffff166370a08231306040518263ffffffff1660e01b8152600401612c619190614026565b60206040518083038186803b158015612c7957600080fd5b505afa158015612c8d573d6000803e3d6000fd5b505050506040513d601f19601f82011682018060405250810190612cb19190613874565b905080821115612d7057600160009054906101000a900473ffffffffffffffffffffffffffffffffffffffff1673ffffffffffffffffffffffffffffffffffffffff1663a9059cbb84836040518363ffffffff1660e01b8152600401612d189291906140a1565b602060405180830381600087803b158015612d3257600080fd5b505af1158015612d46573d6000803e3d6000fd5b505050506040513d601f19601f82011682018060405250810190612d6a91906137d0565b50612e21565b600160009054906101000a900473ffffffffffffffffffffffffffffffffffffffff1673ffffffffffffffffffffffffffffffffffffffff1663a9059cbb84846040518363ffffffff1660e01b8152600401612dcd9291906140a1565b602060405180830381600087803b158015612de757600080fd5b505af1158015612dfb573d6000803e3d6000fd5b505050506040513d601f19601f82011682018060405250810190612e1f91906137d0565b505b505050565b612ea78363a9059cbb60e01b8484604051602401612e459291906140a1565b604051602081830303815290604052907bffffffffffffffffffffffffffffffffffffffffffffffffffffffff19166020820180517bffffffffffffffffffffffffffffffffffffffffffffffffffffffff8381831617835250505050613466565b505050565b600033905090565b6000808284612ec39190614453565b905083811015612f08576040517f08c379a0000000000000000000000000000000000000000000000000000000008152600401612eff90614204565b60405180910390fd5b8091505092915050565b60006006805490509050600080600190505b82811015612f9d57612f8a60068281548110612f69577f4e487b7100000000000000000000000000000000000000000000000000000000600052603260045260246000fd5b90600052602060002090600402016001015483612eb490919063ffffffff16565b915080612f9690614673565b9050612f24565b506000811461308757612fba600382612b7090919063ffffffff16565b905061302f816130216006600081548110612ffe577f4e487b7100000000000000000000000000000000000000000000000000000000600052603260045260246000fd5b906000526020600020906004020160010154600854612bba90919063ffffffff16565b612eb490919063ffffffff16565b600881905550806006600081548110613071577f4e487b7100000000000000000000000000000000000000000000000000000000600052603260045260246000fd5b9060005260206000209060040201600101819055505b5050565b61310e846323b872dd60e01b8585856040516024016130ac9392919061406a565b604051602081830303815290604052907bffffffffffffffffffffffffffffffffffffffffffffffffffffffff19166020820180517bffffffffffffffffffffffffffffffffffffffffffffffffffffffff8381831617835250505050613466565b50505050565b60008114806131ad575060008373ffffffffffffffffffffffffffffffffffffffff1663dd62ed3e30856040518363ffffffff1660e01b815260040161315b929190614041565b60206040518083038186803b15801561317357600080fd5b505afa158015613187573d6000803e3d6000fd5b505050506040513d601f19601f820116820180604052508101906131ab9190613874565b145b6131ec576040517f08c379a00000000000000000000000000000000000000000000000000000000081526004016131e390614364565b60405180910390fd5b61326d8363095ea7b360e01b848460405160240161320b9291906140a1565b604051602081830303815290604052907bffffffffffffffffffffffffffffffffffffffffffffffffffffffff19166020820180517bffffffffffffffffffffffffffffffffffffffffffffffffffffffff8381831617835250505050613466565b505050565b600073ffffffffffffffffffffffffffffffffffffffff168173ffffffffffffffffffffffffffffffffffffffff1614156132e2576040517f08c379a00000000000000000000000000000000000000000000000000000000081526004016132d9906141e4565b60405180910390fd5b8073ffffffffffffffffffffffffffffffffffffffff1660008054906101000a900473ffffffffffffffffffffffffffffffffffffffff1673ffffffffffffffffffffffffffffffffffffffff167f8be0079c531659141344cd1fd0a4f28419497f9722a3daafe3b4186f6b6457e060405160405180910390a3806000806101000a81548173ffffffffffffffffffffffffffffffffffffffff021916908373ffffffffffffffffffffffffffffffffffffffff16021790555050565b600080831182906133e6576040517f08c379a00000000000000000000000000000000000000000000000000000000081526004016133dd9190614182565b60405180910390fd5b50600083856133f591906144a9565b9050809150509392505050565b600083831115829061344a576040517f08c379a00000000000000000000000000000000000000000000000000000000081526004016134419190614182565b60405180910390fd5b50600083856134599190614534565b9050809150509392505050565b60006134c8826040518060400160405280602081526020017f5361666545524332303a206c6f772d6c6576656c2063616c6c206661696c65648152508573ffffffffffffffffffffffffffffffffffffffff1661352d9092919063ffffffff16565b905060008151111561352857808060200190518101906134e891906137d0565b613527576040517f08c379a000000000000000000000000000000000000000000000000000000000815260040161351e90614324565b60405180910390fd5b5b505050565b606061353c8484600085613545565b90509392505050565b60608247101561358a576040517f08c379a000000000000000000000000000000000000000000000000000000000815260040161358190614224565b60405180910390fd5b61359385613659565b6135d2576040517f08c379a00000000000000000000000000000000000000000000000000000000081526004016135c9906142c4565b60405180910390fd5b6000808673ffffffffffffffffffffffffffffffffffffffff1685876040516135fb919061400f565b60006040518083038185875af1925050503d8060008114613638576040519150601f19603f3d011682016040523d82523d6000602084013e61363d565b606091505b509150915061364d828286613698565b92505050949350505050565b6000808273ffffffffffffffffffffffffffffffffffffffff16803b806020016040519081016040528181526000908060200190933c51119050919050565b606083156136a8578290506136f8565b6000835111156136bb5782518084602001fd5b816040517f08c379a00000000000000000000000000000000000000000000000000000000081526004016136ef9190614182565b60405180910390fd5b9392505050565b60008135905061370e8161472b565b92915050565b60008135905061372381614742565b92915050565b60008151905061373881614742565b92915050565b60008135905061374d81614759565b92915050565b60008151905061376281614759565b92915050565b60008135905061377781614770565b92915050565b60008135905061378c81614787565b92915050565b6000815190506137a181614787565b92915050565b6000602082840312156137b957600080fd5b60006137c7848285016136ff565b91505092915050565b6000602082840312156137e257600080fd5b60006137f084828501613729565b91505092915050565b60006020828403121561380b57600080fd5b600061381984828501613753565b91505092915050565b60006020828403121561383457600080fd5b600061384284828501613768565b91505092915050565b60006020828403121561385d57600080fd5b600061386b8482850161377d565b91505092915050565b60006020828403121561388657600080fd5b600061389484828501613792565b91505092915050565b600080604083850312156138b057600080fd5b60006138be8582860161377d565b92505060206138cf858286016136ff565b9150509250929050565b6000806000606084860312156138ee57600080fd5b60006138fc8682870161377d565b935050602061390d8682870161373e565b925050604061391e86828701613714565b9150509250925092565b6000806040838503121561393b57600080fd5b60006139498582860161377d565b925050602061395a8582860161377d565b9150509250929050565b60008060006060848603121561397957600080fd5b60006139878682870161377d565b93505060206139988682870161377d565b92505060406139a986828701613714565b9150509250925092565b60006139bf8383613f9c565b60808301905092915050565b6139d481614568565b82525050565b60006139e5826143f8565b6139ef8185614426565b93506139fa836143e8565b8060005b83811015613a2b578151613a1288826139b3565b9750613a1d83614419565b9250506001810190506139fe565b5085935050505092915050565b6000613a4382614403565b613a4d8185614437565b9350613a5d818560208601614640565b80840191505092915050565b613a72816145d4565b82525050565b613a81816145d4565b82525050565b613a90816145f8565b82525050565b613a9f8161461c565b82525050565b6000613ab08261440e565b613aba8185614442565b9350613aca818560208601614640565b613ad38161471a565b840191505092915050565b6000613aeb601283614442565b91507f496e7375666963656e742062616c616e636500000000000000000000000000006000830152602082019050919050565b6000613b2b601f83614442565b91507f616d6f756e7420626967676572207468616e20436865662042616c616e6365006000830152602082019050919050565b6000613b6b602683614442565b91507f4f776e61626c653a206e6577206f776e657220697320746865207a65726f206160008301527f64647265737300000000000000000000000000000000000000000000000000006020830152604082019050919050565b6000613bd1601b83614442565b91507f536166654d6174683a206164646974696f6e206f766572666c6f7700000000006000830152602082019050919050565b6000613c11602683614442565b91507f416464726573733a20696e73756666696369656e742062616c616e636520666f60008301527f722063616c6c00000000000000000000000000000000000000000000000000006020830152604082019050919050565b6000613c77600983614442565b91507f6465763a207775743f00000000000000000000000000000000000000000000006000830152602082019050919050565b6000613cb7602183614442565b91507f536166654d6174683a206d756c7469706c69636174696f6e206f766572666c6f60008301527f77000000000000000000000000000000000000000000000000000000000000006020830152604082019050919050565b6000613d1d602083614442565b91507f4f776e61626c653a2063616c6c6572206973206e6f7420746865206f776e65726000830152602082019050919050565b6000613d5d601983614442565b91507f6465706f73697420526564446f74206279207374616b696e67000000000000006000830152602082019050919050565b6000613d9d601d83614442565b91507f416464726573733a2063616c6c20746f206e6f6e2d636f6e74726163740000006000830152602082019050919050565b6000613ddd601283614442565b91507f77697468647261773a206e6f7420676f6f6400000000000000000000000000006000830152602082019050919050565b6000613e1d601a83614442565b91507f77697468647261772043414b4520627920756e7374616b696e670000000000006000830152602082019050919050565b6000613e5d602a83614442565b91507f5361666545524332303a204552433230206f7065726174696f6e20646964206e60008301527f6f742073756363656564000000000000000000000000000000000000000000006020830152604082019050919050565b6000613ec3600c83614442565b91507f6d6967726174653a2062616400000000000000000000000000000000000000006000830152602082019050919050565b6000613f03603683614442565b91507f5361666545524332303a20617070726f76652066726f6d206e6f6e2d7a65726f60008301527f20746f206e6f6e2d7a65726f20616c6c6f77616e6365000000000000000000006020830152604082019050919050565b6000613f69601483614442565b91507f6d6967726174653a206e6f206d69677261746f720000000000000000000000006000830152602082019050919050565b608082016000820151613fb26000850182613a69565b506020820151613fc56020850182613ff1565b506040820151613fd86040850182613ff1565b506060820151613feb6060850182613ff1565b50505050565b613ffa816145ca565b82525050565b614009816145ca565b82525050565b600061401b8284613a38565b915081905092915050565b600060208201905061403b60008301846139cb565b92915050565b600060408201905061405660008301856139cb565b61406360208301846139cb565b9392505050565b600060608201905061407f60008301866139cb565b61408c60208301856139cb565b6140996040830184614000565b949350505050565b60006040820190506140b660008301856139cb565b6140c36020830184614000565b9392505050565b600060208201905081810360008301526140e481846139da565b905092915050565b60006020820190506141016000830184613a78565b92915050565b600060808201905061411c6000830187613a78565b6141296020830186614000565b6141366040830185614000565b6141436060830184614000565b95945050505050565b60006020820190506141616000830184613a87565b92915050565b600060208201905061417c6000830184613a96565b92915050565b6000602082019050818103600083015261419c8184613aa5565b905092915050565b600060208201905081810360008301526141bd81613ade565b9050919050565b600060208201905081810360008301526141dd81613b1e565b9050919050565b600060208201905081810360008301526141fd81613b5e565b9050919050565b6000602082019050818103600083015261421d81613bc4565b9050919050565b6000602082019050818103600083015261423d81613c04565b9050919050565b6000602082019050818103600083015261425d81613c6a565b9050919050565b6000602082019050818103600083015261427d81613caa565b9050919050565b6000602082019050818103600083015261429d81613d10565b9050919050565b600060208201905081810360008301526142bd81613d50565b9050919050565b600060208201905081810360008301526142dd81613d90565b9050919050565b600060208201905081810360008301526142fd81613dd0565b9050919050565b6000602082019050818103600083015261431d81613e10565b9050919050565b6000602082019050818103600083015261433d81613e50565b9050919050565b6000602082019050818103600083015261435d81613eb6565b9050919050565b6000602082019050818103600083015261437d81613ef6565b9050919050565b6000602082019050818103600083015261439d81613f5c565b9050919050565b60006020820190506143b96000830184614000565b92915050565b60006040820190506143d46000830185614000565b6143e16020830184614000565b9392505050565b6000819050602082019050919050565b600081519050919050565b600081519050919050565b600081519050919050565b6000602082019050919050565b600082825260208201905092915050565b600081905092915050565b600082825260208201905092915050565b600061445e826145ca565b9150614469836145ca565b9250827fffffffffffffffffffffffffffffffffffffffffffffffffffffffffffffffff0382111561449e5761449d6146bc565b5b828201905092915050565b60006144b4826145ca565b91506144bf836145ca565b9250826144cf576144ce6146eb565b5b828204905092915050565b60006144e5826145ca565b91506144f0836145ca565b9250817fffffffffffffffffffffffffffffffffffffffffffffffffffffffffffffffff0483118215151615614529576145286146bc565b5b828202905092915050565b600061453f826145ca565b915061454a836145ca565b92508282101561455d5761455c6146bc565b5b828203905092915050565b6000614573826145aa565b9050919050565b60008115159050919050565b600061459182614568565b9050919050565b60006145a382614568565b9050919050565b600073ffffffffffffffffffffffffffffffffffffffff82169050919050565b6000819050919050565b60006145df826145e6565b9050919050565b60006145f1826145aa565b9050919050565b60006146038261460a565b9050919050565b6000614615826145aa565b9050919050565b60006146278261462e565b9050919050565b6000614639826145aa565b9050919050565b60005b8381101561465e578082015181840152602081019050614643565b8381111561466d576000848401525b50505050565b600061467e826145ca565b91507fffffffffffffffffffffffffffffffffffffffffffffffffffffffffffffffff8214156146b1576146b06146bc565b5b600182019050919050565b7f4e487b7100000000000000000000000000000000000000000000000000000000600052601160045260246000fd5b7f4e487b7100000000000000000000000000000000000000000000000000000000600052601260045260246000fd5b6000601f19601f8301169050919050565b61473481614568565b811461473f57600080fd5b50565b61474b8161457a565b811461475657600080fd5b50565b61476281614586565b811461476d57600080fd5b50565b61477981614598565b811461478457600080fd5b50565b614790816145ca565b811461479b57600080fd5b5056fea26469706673582212208163ad6b5970ed8bc4c8ac6cfcc2a1ed40ad84580e96237f4c164a31b62e1e5964736f6c63430008000033",
  "linkReferences": {},
  "deployedLinkReferences": {}
}