{
  "_format": "hh-sol-artifact-1",
  "contractName": "MasterChef",
  "sourceName": "contracts/MasterChef.sol",
  "abi": [
    {
      "inputs": [
        {
          "internalType": "contract RedDotToken",
          "name": "_redDot",
          "type": "address"
        },
        {
          "internalType": "uint256",
          "name": "_redDotPerBlock",
          "type": "uint256"
        }
      ],
      "stateMutability": "nonpayable",
      "type": "constructor"
    },
    {
      "anonymous": false,
      "inputs": [
        {
          "indexed": true,
          "internalType": "address",
          "name": "user",
          "type": "address"
        },
        {
          "indexed": false,
          "internalType": "string",
          "name": "pid",
          "type": "string"
        },
        {
          "indexed": false,
          "internalType": "uint256",
          "name": "amount",
          "type": "uint256"
        }
      ],
      "name": "Deposit",
      "type": "event"
    },
    {
      "anonymous": false,
      "inputs": [
        {
          "indexed": true,
          "internalType": "address",
          "name": "user",
          "type": "address"
        },
        {
          "indexed": true,
          "internalType": "uint256",
          "name": "pid",
          "type": "uint256"
        },
        {
          "indexed": false,
          "internalType": "uint256",
          "name": "amount",
          "type": "uint256"
        }
      ],
      "name": "EmergencyWithdraw",
      "type": "event"
    },
    {
      "anonymous": false,
      "inputs": [
        {
          "indexed": true,
          "internalType": "address",
          "name": "previousOwner",
          "type": "address"
        },
        {
          "indexed": true,
          "internalType": "address",
          "name": "newOwner",
          "type": "address"
        }
      ],
      "name": "OwnershipTransferred",
      "type": "event"
    },
    {
      "anonymous": false,
      "inputs": [
        {
          "indexed": true,
          "internalType": "address",
          "name": "user",
          "type": "address"
        },
        {
          "indexed": false,
          "internalType": "string",
          "name": "pid",
          "type": "string"
        },
        {
          "indexed": false,
          "internalType": "uint256",
          "name": "amount",
          "type": "uint256"
        }
      ],
      "name": "Withdraw",
      "type": "event"
    },
    {
      "inputs": [],
      "name": "BONUS_MULTIPLIER",
      "outputs": [
        {
          "internalType": "uint256",
          "name": "",
          "type": "uint256"
        }
      ],
      "stateMutability": "view",
      "type": "function"
    },
    {
      "inputs": [
        {
          "internalType": "uint256",
          "name": "_allocPoint",
          "type": "uint256"
        },
        {
          "internalType": "contract IERC20",
          "name": "_lpToken",
          "type": "address"
        },
        {
          "internalType": "bool",
          "name": "_withUpdate",
          "type": "bool"
        },
        {
          "internalType": "string",
          "name": "_poolName",
          "type": "string"
        }
      ],
      "name": "add",
      "outputs": [],
      "stateMutability": "nonpayable",
      "type": "function"
    },
    {
      "inputs": [
        {
          "internalType": "string",
          "name": "_poolName",
          "type": "string"
        },
        {
          "internalType": "uint256",
          "name": "_amount",
          "type": "uint256"
        }
      ],
      "name": "claimReward",
      "outputs": [],
      "stateMutability": "nonpayable",
      "type": "function"
    },
    {
      "inputs": [
        {
          "internalType": "string",
          "name": "_poolName",
          "type": "string"
        },
        {
          "internalType": "uint256",
          "name": "_amount",
          "type": "uint256"
        }
      ],
      "name": "deposit",
      "outputs": [],
      "stateMutability": "nonpayable",
      "type": "function"
    },
    {
      "inputs": [
        {
          "internalType": "uint256",
          "name": "_from",
          "type": "uint256"
        },
        {
          "internalType": "uint256",
          "name": "_to",
          "type": "uint256"
        }
      ],
      "name": "getMultiplier",
      "outputs": [
        {
          "internalType": "uint256",
          "name": "",
          "type": "uint256"
        }
      ],
      "stateMutability": "view",
      "type": "function"
    },
    {
      "inputs": [],
      "name": "getRDXBalance",
      "outputs": [
        {
          "internalType": "uint256",
          "name": "",
          "type": "uint256"
        }
      ],
      "stateMutability": "view",
      "type": "function"
    },
    {
      "inputs": [
        {
          "internalType": "string",
          "name": "_poolName",
          "type": "string"
        }
      ],
      "name": "getUserAmountDeposit",
      "outputs": [
        {
          "internalType": "uint256",
          "name": "",
          "type": "uint256"
        }
      ],
      "stateMutability": "view",
      "type": "function"
    },
    {
      "inputs": [],
      "name": "massUpdatePools",
      "outputs": [],
      "stateMutability": "nonpayable",
      "type": "function"
    },
    {
      "inputs": [],
      "name": "owner",
      "outputs": [
        {
          "internalType": "address",
          "name": "",
          "type": "address"
        }
      ],
      "stateMutability": "view",
      "type": "function"
    },
    {
      "inputs": [
        {
          "internalType": "string",
          "name": "_poolName",
          "type": "string"
        },
        {
          "internalType": "address",
          "name": "_user",
          "type": "address"
        }
      ],
      "name": "pendingRedDot",
      "outputs": [
        {
          "internalType": "uint256",
          "name": "",
          "type": "uint256"
        }
      ],
      "stateMutability": "view",
      "type": "function"
    },
    {
      "inputs": [
        {
          "internalType": "string",
          "name": "",
          "type": "string"
        }
      ],
      "name": "poolInfoMap",
      "outputs": [
        {
          "internalType": "contract IERC20",
          "name": "lpToken",
          "type": "address"
        },
        {
          "internalType": "uint256",
          "name": "allocPoint",
          "type": "uint256"
        },
        {
          "internalType": "uint256",
          "name": "lastRewardBlock",
          "type": "uint256"
        },
        {
          "internalType": "uint256",
          "name": "accRedDotPerShare",
          "type": "uint256"
        }
      ],
      "stateMutability": "view",
      "type": "function"
    },
    {
      "inputs": [
        {
          "internalType": "uint256",
          "name": "",
          "type": "uint256"
        }
      ],
      "name": "poolNames",
      "outputs": [
        {
          "internalType": "string",
          "name": "",
          "type": "string"
        }
      ],
      "stateMutability": "view",
      "type": "function"
    },
    {
      "inputs": [],
      "name": "redDot",
      "outputs": [
        {
          "internalType": "contract RedDotToken",
          "name": "",
          "type": "address"
        }
      ],
      "stateMutability": "view",
      "type": "function"
    },
    {
      "inputs": [],
      "name": "redDotPerBlock",
      "outputs": [
        {
          "internalType": "uint256",
          "name": "",
          "type": "uint256"
        }
      ],
      "stateMutability": "view",
      "type": "function"
    },
    {
      "inputs": [],
      "name": "renounceOwnership",
      "outputs": [],
      "stateMutability": "nonpayable",
      "type": "function"
    },
    {
      "inputs": [
        {
          "internalType": "string",
          "name": "_poolName",
          "type": "string"
        },
        {
          "internalType": "uint256",
          "name": "_allocPoint",
          "type": "uint256"
        },
        {
          "internalType": "bool",
          "name": "_withUpdate",
          "type": "bool"
        }
      ],
      "name": "set",
      "outputs": [],
      "stateMutability": "nonpayable",
      "type": "function"
    },
    {
      "inputs": [],
      "name": "totalAllocPoint",
      "outputs": [
        {
          "internalType": "uint256",
          "name": "",
          "type": "uint256"
        }
      ],
      "stateMutability": "view",
      "type": "function"
    },
    {
      "inputs": [
        {
          "internalType": "address",
          "name": "newOwner",
          "type": "address"
        }
      ],
      "name": "transferOwnership",
      "outputs": [],
      "stateMutability": "nonpayable",
      "type": "function"
    },
    {
      "inputs": [
        {
          "internalType": "uint256",
          "name": "multiplierNumber",
          "type": "uint256"
        }
      ],
      "name": "updateMultiplier",
      "outputs": [],
      "stateMutability": "nonpayable",
      "type": "function"
    },
    {
      "inputs": [
        {
          "internalType": "string",
          "name": "_poolName",
          "type": "string"
        }
      ],
      "name": "updatePool",
      "outputs": [],
      "stateMutability": "nonpayable",
      "type": "function"
    },
    {
      "inputs": [
        {
          "internalType": "string",
          "name": "",
          "type": "string"
        },
        {
          "internalType": "address",
          "name": "",
          "type": "address"
        }
      ],
      "name": "userInfoMap",
      "outputs": [
        {
          "internalType": "uint256",
          "name": "amount",
          "type": "uint256"
        },
        {
          "internalType": "uint256",
          "name": "rewardDebt",
          "type": "uint256"
        }
      ],
      "stateMutability": "view",
      "type": "function"
    },
    {
      "inputs": [
        {
          "internalType": "string",
          "name": "_poolName",
          "type": "string"
        },
        {
          "internalType": "uint256",
          "name": "_amount",
          "type": "uint256"
        }
      ],
      "name": "withdraw",
      "outputs": [],
      "stateMutability": "nonpayable",
      "type": "function"
    }
  ],
  "bytecode": "0x6080604052600160025560006007553480156200001b57600080fd5b506040516200346638038062003466833981810160405281019062000041919062000177565b6000620000536200014160201b60201c565b9050806000806101000a81548173ffffffffffffffffffffffffffffffffffffffff021916908373ffffffffffffffffffffffffffffffffffffffff1602179055508073ffffffffffffffffffffffffffffffffffffffff16600073ffffffffffffffffffffffffffffffffffffffff167f8be0079c531659141344cd1fd0a4f28419497f9722a3daafe3b4186f6b6457e060405160405180910390a35081600160006101000a81548173ffffffffffffffffffffffffffffffffffffffff021916908373ffffffffffffffffffffffffffffffffffffffff1602179055508060038190555050506200023e565b600033905090565b6000815190506200015a816200020a565b92915050565b600081519050620001718162000224565b92915050565b600080604083850312156200018b57600080fd5b60006200019b8582860162000149565b9250506020620001ae8582860162000160565b9150509250929050565b6000620001c582620001e0565b9050919050565b6000620001d982620001b8565b9050919050565b600073ffffffffffffffffffffffffffffffffffffffff82169050919050565b6000819050919050565b6200021581620001cc565b81146200022157600080fd5b50565b6200022f8162000200565b81146200023b57600080fd5b50565b613218806200024e6000396000f3fe608060405234801561001057600080fd5b50600436106101425760003560e01c80638aa28550116100b8578063a6551d4b1161007c578063a6551d4b1461033e578063b6d6c35a1461035a578063b74cf4d11461038a578063d8f9bffe146103a8578063f2fde38b146103db578063f5fef2d3146103f757610142565b80638aa285501461029a5780638da5cb5b146102b85780638dbb1e3a146102d65780638e27d71914610306578063970b7ed61461032257610142565b806347e055261161010a57806347e05526146101ec5780635ffe61461461020a578063630b5ba114610226578063715018a614610230578063733b05e21461023a5780637fbcef531461026a57610142565b8063151584111461014757806317caf6f11461016557806330b39a6214610183578063414d9c921461019f5780634294e96a146101d0575b600080fd5b61014f610413565b60405161015c9190612d63565b60405180910390f35b61016d610419565b60405161017a9190612d63565b60405180910390f35b61019d600480360381019061019891906124b5565b61041f565b005b6101b960048036038101906101b49190612461565b610659565b6040516101c7929190612d7e565b60405180910390f35b6101ea60048036038101906101e591906124b5565b6106a0565b005b6101f4610a86565b6040516102019190612b96565b60405180910390f35b610224600480360381019061021f9190612570565b610aac565b005b61022e610b4b565b005b610238610c44565b005b610254600480360381019061024f9190612570565b610d97565b6040516102619190612bb1565b60405180910390f35b610284600480360381019061027f9190612461565b610e43565b6040516102919190612d63565b60405180910390f35b6102a261107e565b6040516102af9190612d63565b60405180910390f35b6102c0611084565b6040516102cd9190612ad6565b60405180910390f35b6102f060048036038101906102eb919061263d565b6110ad565b6040516102fd9190612d63565b60405180910390f35b610320600480360381019061031b91906124b5565b6110de565b005b61033c600480360381019061033791906125c2565b6112e1565b005b61035860048036038101906103539190612509565b611411565b005b610374600480360381019061036f9190612420565b61153c565b6040516103819190612d63565b60405180910390f35b6103926115a9565b60405161039f9190612d63565b60405180910390f35b6103c260048036038101906103bd9190612420565b611660565b6040516103d29493929190612b51565b60405180910390f35b6103f560048036038101906103f091906123ce565b6116c6565b005b610411600480360381019061040c9190612420565b611767565b005b60035481565b60075481565b60006004836040516104319190612abf565b9081526020016040518091039020905060006006846040516104539190612abf565b908152602001604051809103902060003373ffffffffffffffffffffffffffffffffffffffff1673ffffffffffffffffffffffffffffffffffffffff168152602001908152602001600020905082816000015410156104e7576040517f08c379a00000000000000000000000000000000000000000000000000000000081526004016104de90612d23565b60405180910390fd5b6104f084611767565b600061053a826001015461052c64e8d4a5100061051e8760030154876000015461191290919063ffffffff16565b61198d90919063ffffffff16565b6119d790919063ffffffff16565b905060008111156105505761054f3382611a21565b5b60008411156105c8576105708483600001546119d790919063ffffffff16565b82600001819055506105c733858560000160009054906101000a900473ffffffffffffffffffffffffffffffffffffffff1673ffffffffffffffffffffffffffffffffffffffff16611c439092919063ffffffff16565b5b6105fa64e8d4a510006105ec8560030154856000015461191290919063ffffffff16565b61198d90919063ffffffff16565b82600101819055503373ffffffffffffffffffffffffffffffffffffffff167f901c03da5d88eb3d62ab4617e7b7d17d86db16356823a7971127d5181a842fef868660405161064a929190612bd3565b60405180910390a25050505050565b600682805160208101820180518482526020830160208501208183528095505050505050602052806000526040600020600091509150508060000154908060010154905082565b60006004836040516106b29190612abf565b9081526020016040518091039020905060006006846040516106d49190612abf565b908152602001604051809103902060003373ffffffffffffffffffffffffffffffffffffffff1673ffffffffffffffffffffffffffffffffffffffff168152602001908152602001600020905061072a84611767565b60008260030154905060008360000160009054906101000a900473ffffffffffffffffffffffffffffffffffffffff1673ffffffffffffffffffffffffffffffffffffffff166370a08231306040518263ffffffff1660e01b81526004016107929190612ad6565b60206040518083038186803b1580156107aa57600080fd5b505afa1580156107be573d6000803e3d6000fd5b505050506040513d601f19601f820116820180604052508101906107e29190612599565b90508360020154431180156107f8575060008114155b1561089357600061080d8560020154436110ad565b9050600061085060075461084288600101546108346003548761191290919063ffffffff16565b61191290919063ffffffff16565b61198d90919063ffffffff16565b905061088e61087f8461087164e8d4a510008561191290919063ffffffff16565b61198d90919063ffffffff16565b85611cc990919063ffffffff16565b935050505b60006108d984600101546108cb64e8d4a510006108bd87896000015461191290919063ffffffff16565b61198d90919063ffffffff16565b6119d790919063ffffffff16565b90506000600160009054906101000a900473ffffffffffffffffffffffffffffffffffffffff1673ffffffffffffffffffffffffffffffffffffffff166370a08231306040518263ffffffff1660e01b81526004016109389190612ad6565b60206040518083038186803b15801561095057600080fd5b505afa158015610964573d6000803e3d6000fd5b505050506040513d601f19601f820116820180604052508101906109889190612599565b9050600087116109cd576040517f08c379a00000000000000000000000000000000000000000000000000000000081526004016109c490612ce3565b60405180910390fd5b81871115610a10576040517f08c379a0000000000000000000000000000000000000000000000000000000008152600401610a0790612c03565b60405180910390fd5b80871115610a53576040517f08c379a0000000000000000000000000000000000000000000000000000000008152600401610a4a90612c23565b60405180910390fd5b610a6a878660010154611cc990919063ffffffff16565b8560010181905550610a7c3388611a21565b5050505050505050565b600160009054906101000a900473ffffffffffffffffffffffffffffffffffffffff1681565b610ab4611d27565b73ffffffffffffffffffffffffffffffffffffffff1660008054906101000a900473ffffffffffffffffffffffffffffffffffffffff1673ffffffffffffffffffffffffffffffffffffffff1614610b41576040517f08c379a0000000000000000000000000000000000000000000000000000000008152600401610b3890612cc3565b60405180910390fd5b8060028190555050565b60005b600580549050811015610c4157610c3060058281548110610b98577f4e487b7100000000000000000000000000000000000000000000000000000000600052603260045260246000fd5b906000526020600020018054610bad9061303e565b80601f0160208091040260200160405190810160405280929190818152602001828054610bd99061303e565b8015610c265780601f10610bfb57610100808354040283529160200191610c26565b820191906000526020600020905b815481529060010190602001808311610c0957829003601f168201915b5050505050611767565b80610c3a90613070565b9050610b4e565b50565b610c4c611d27565b73ffffffffffffffffffffffffffffffffffffffff1660008054906101000a900473ffffffffffffffffffffffffffffffffffffffff1673ffffffffffffffffffffffffffffffffffffffff1614610cd9576040517f08c379a0000000000000000000000000000000000000000000000000000000008152600401610cd090612cc3565b60405180910390fd5b600073ffffffffffffffffffffffffffffffffffffffff1660008054906101000a900473ffffffffffffffffffffffffffffffffffffffff1673ffffffffffffffffffffffffffffffffffffffff167f8be0079c531659141344cd1fd0a4f28419497f9722a3daafe3b4186f6b6457e060405160405180910390a360008060006101000a81548173ffffffffffffffffffffffffffffffffffffffff021916908373ffffffffffffffffffffffffffffffffffffffff160217905550565b60058181548110610da757600080fd5b906000526020600020016000915090508054610dc29061303e565b80601f0160208091040260200160405190810160405280929190818152602001828054610dee9061303e565b8015610e3b5780601f10610e1057610100808354040283529160200191610e3b565b820191906000526020600020905b815481529060010190602001808311610e1e57829003601f168201915b505050505081565b600080600484604051610e569190612abf565b908152602001604051809103902090506000600685604051610e789190612abf565b908152602001604051809103902060008573ffffffffffffffffffffffffffffffffffffffff1673ffffffffffffffffffffffffffffffffffffffff168152602001908152602001600020905060008260030154905060008360000160009054906101000a900473ffffffffffffffffffffffffffffffffffffffff1673ffffffffffffffffffffffffffffffffffffffff166370a08231306040518263ffffffff1660e01b8152600401610f2d9190612ad6565b60206040518083038186803b158015610f4557600080fd5b505afa158015610f59573d6000803e3d6000fd5b505050506040513d601f19601f82011682018060405250810190610f7d9190612599565b9050836002015443118015610f93575060008114155b1561102e576000610fa88560020154436110ad565b90506000610feb600754610fdd8860010154610fcf6003548761191290919063ffffffff16565b61191290919063ffffffff16565b61198d90919063ffffffff16565b905061102961101a8461100c64e8d4a510008561191290919063ffffffff16565b61198d90919063ffffffff16565b85611cc990919063ffffffff16565b935050505b611072836001015461106464e8d4a5100061105686886000015461191290919063ffffffff16565b61198d90919063ffffffff16565b6119d790919063ffffffff16565b94505050505092915050565b60025481565b60008060009054906101000a900473ffffffffffffffffffffffffffffffffffffffff16905090565b60006110d66002546110c885856119d790919063ffffffff16565b61191290919063ffffffff16565b905092915050565b60006004836040516110f09190612abf565b9081526020016040518091039020905060006006846040516111129190612abf565b908152602001604051809103902060003373ffffffffffffffffffffffffffffffffffffffff1673ffffffffffffffffffffffffffffffffffffffff168152602001908152602001600020905061116884611767565b6000816000015411156111d75760006111bf82600101546111b164e8d4a510006111a38760030154876000015461191290919063ffffffff16565b61198d90919063ffffffff16565b6119d790919063ffffffff16565b905060008111156111d5576111d43382611a21565b5b505b6000831115611251576112313330858560000160009054906101000a900473ffffffffffffffffffffffffffffffffffffffff1673ffffffffffffffffffffffffffffffffffffffff16611d2f909392919063ffffffff16565b611248838260000154611cc990919063ffffffff16565b81600001819055505b61128364e8d4a510006112758460030154846000015461191290919063ffffffff16565b61198d90919063ffffffff16565b81600101819055503373ffffffffffffffffffffffffffffffffffffffff167f2d4b597935f3cd67fb2eebf1db4debc934cee5c7baa7153f980fdbeb2e74084e85856040516112d3929190612bd3565b60405180910390a250505050565b81156112f0576112ef610b4b565b5b600043905061130a85600754611cc990919063ffffffff16565b60078190555060405180608001604052808573ffffffffffffffffffffffffffffffffffffffff16815260200186815260200182815260200160008152506004836040516113589190612abf565b908152602001604051809103902060008201518160000160006101000a81548173ffffffffffffffffffffffffffffffffffffffff021916908373ffffffffffffffffffffffffffffffffffffffff160217905550602082015181600101556040820151816002015560608201518160030155905050600582908060018154018082558091505060019003906000526020600020016000909190919091509080519060200190611409929190612245565b505050505050565b611419611d27565b73ffffffffffffffffffffffffffffffffffffffff1660008054906101000a900473ffffffffffffffffffffffffffffffffffffffff1673ffffffffffffffffffffffffffffffffffffffff16146114a6576040517f08c379a000000000000000000000000000000000000000000000000000000000815260040161149d90612cc3565b60405180910390fd5b80156114b5576114b4610b4b565b5b60006004846040516114c79190612abf565b9081526020016040518091039020600101549050826004856040516114ec9190612abf565b9081526020016040518091039020600101819055508281146115365761152f83611521836007546119d790919063ffffffff16565b611cc990919063ffffffff16565b6007819055505b50505050565b60008060068360405161154f9190612abf565b908152602001604051809103902060003373ffffffffffffffffffffffffffffffffffffffff1673ffffffffffffffffffffffffffffffffffffffff16815260200190815260200160002060000154905080915050919050565b600080600160009054906101000a900473ffffffffffffffffffffffffffffffffffffffff1673ffffffffffffffffffffffffffffffffffffffff166370a08231306040518263ffffffff1660e01b81526004016116079190612ad6565b60206040518083038186803b15801561161f57600080fd5b505afa158015611633573d6000803e3d6000fd5b505050506040513d601f19601f820116820180604052508101906116579190612599565b90508091505090565b6004818051602081018201805184825260208301602085012081835280955050505050506000915090508060000160009054906101000a900473ffffffffffffffffffffffffffffffffffffffff16908060010154908060020154908060030154905084565b6116ce611d27565b73ffffffffffffffffffffffffffffffffffffffff1660008054906101000a900473ffffffffffffffffffffffffffffffffffffffff1673ffffffffffffffffffffffffffffffffffffffff161461175b576040517f08c379a000000000000000000000000000000000000000000000000000000000815260040161175290612cc3565b60405180910390fd5b61176481611db8565b50565b60006004826040516117799190612abf565b908152602001604051809103902090508060020154431161179a575061190f565b60008160000160009054906101000a900473ffffffffffffffffffffffffffffffffffffffff1673ffffffffffffffffffffffffffffffffffffffff166370a08231306040518263ffffffff1660e01b81526004016117f99190612ad6565b60206040518083038186803b15801561181157600080fd5b505afa158015611825573d6000803e3d6000fd5b505050506040513d601f19601f820116820180604052508101906118499190612599565b9050600081141561186457438260020181905550505061190f565b60006118748360020154436110ad565b905060006118b76007546118a9866001015461189b6003548761191290919063ffffffff16565b61191290919063ffffffff16565b61198d90919063ffffffff16565b90506118f96118e6846118d864e8d4a510008561191290919063ffffffff16565b61198d90919063ffffffff16565b8560030154611cc990919063ffffffff16565b8460030181905550438460020181905550505050505b50565b6000808314156119255760009050611987565b600082846119339190612ecc565b90508284826119429190612e9b565b14611982576040517f08c379a000000000000000000000000000000000000000000000000000000000815260040161197990612ca3565b60405180910390fd5b809150505b92915050565b60006119cf83836040518060400160405280601a81526020017f536166654d6174683a206469766973696f6e206279207a65726f000000000000815250611ee5565b905092915050565b6000611a1983836040518060400160405280601e81526020017f536166654d6174683a207375627472616374696f6e206f766572666c6f770000815250611f48565b905092915050565b6000600160009054906101000a900473ffffffffffffffffffffffffffffffffffffffff1673ffffffffffffffffffffffffffffffffffffffff166370a08231306040518263ffffffff1660e01b8152600401611a7e9190612ad6565b60206040518083038186803b158015611a9657600080fd5b505afa158015611aaa573d6000803e3d6000fd5b505050506040513d601f19601f82011682018060405250810190611ace9190612599565b905080821115611b8d57600160009054906101000a900473ffffffffffffffffffffffffffffffffffffffff1673ffffffffffffffffffffffffffffffffffffffff1663a9059cbb84836040518363ffffffff1660e01b8152600401611b35929190612b28565b602060405180830381600087803b158015611b4f57600080fd5b505af1158015611b63573d6000803e3d6000fd5b505050506040513d601f19601f82011682018060405250810190611b8791906123f7565b50611c3e565b600160009054906101000a900473ffffffffffffffffffffffffffffffffffffffff1673ffffffffffffffffffffffffffffffffffffffff1663a9059cbb84846040518363ffffffff1660e01b8152600401611bea929190612b28565b602060405180830381600087803b158015611c0457600080fd5b505af1158015611c18573d6000803e3d6000fd5b505050506040513d601f19601f82011682018060405250810190611c3c91906123f7565b505b505050565b611cc48363a9059cbb60e01b8484604051602401611c62929190612b28565b604051602081830303815290604052907bffffffffffffffffffffffffffffffffffffffffffffffffffffffff19166020820180517bffffffffffffffffffffffffffffffffffffffffffffffffffffffff8381831617835250505050611fac565b505050565b6000808284611cd89190612e45565b905083811015611d1d576040517f08c379a0000000000000000000000000000000000000000000000000000000008152600401611d1490612c63565b60405180910390fd5b8091505092915050565b600033905090565b611db2846323b872dd60e01b858585604051602401611d5093929190612af1565b604051602081830303815290604052907bffffffffffffffffffffffffffffffffffffffffffffffffffffffff19166020820180517bffffffffffffffffffffffffffffffffffffffffffffffffffffffff8381831617835250505050611fac565b50505050565b600073ffffffffffffffffffffffffffffffffffffffff168173ffffffffffffffffffffffffffffffffffffffff161415611e28576040517f08c379a0000000000000000000000000000000000000000000000000000000008152600401611e1f90612c43565b60405180910390fd5b8073ffffffffffffffffffffffffffffffffffffffff1660008054906101000a900473ffffffffffffffffffffffffffffffffffffffff1673ffffffffffffffffffffffffffffffffffffffff167f8be0079c531659141344cd1fd0a4f28419497f9722a3daafe3b4186f6b6457e060405160405180910390a3806000806101000a81548173ffffffffffffffffffffffffffffffffffffffff021916908373ffffffffffffffffffffffffffffffffffffffff16021790555050565b60008083118290611f2c576040517f08c379a0000000000000000000000000000000000000000000000000000000008152600401611f239190612bb1565b60405180910390fd5b5060008385611f3b9190612e9b565b9050809150509392505050565b6000838311158290611f90576040517f08c379a0000000000000000000000000000000000000000000000000000000008152600401611f879190612bb1565b60405180910390fd5b5060008385611f9f9190612f26565b9050809150509392505050565b600061200e826040518060400160405280602081526020017f5361666545524332303a206c6f772d6c6576656c2063616c6c206661696c65648152508573ffffffffffffffffffffffffffffffffffffffff166120739092919063ffffffff16565b905060008151111561206e578080602001905181019061202e91906123f7565b61206d576040517f08c379a000000000000000000000000000000000000000000000000000000000815260040161206490612d43565b60405180910390fd5b5b505050565b6060612082848460008561208b565b90509392505050565b6060824710156120d0576040517f08c379a00000000000000000000000000000000000000000000000000000000081526004016120c790612c83565b60405180910390fd5b6120d98561219f565b612118576040517f08c379a000000000000000000000000000000000000000000000000000000000815260040161210f90612d03565b60405180910390fd5b6000808673ffffffffffffffffffffffffffffffffffffffff1685876040516121419190612aa8565b60006040518083038185875af1925050503d806000811461217e576040519150601f19603f3d011682016040523d82523d6000602084013e612183565b606091505b50915091506121938282866121de565b92505050949350505050565b6000808273ffffffffffffffffffffffffffffffffffffffff16803b806020016040519081016040528181526000908060200190933c51119050919050565b606083156121ee5782905061223e565b6000835111156122015782518084602001fd5b816040517f08c379a00000000000000000000000000000000000000000000000000000000081526004016122359190612bb1565b60405180910390fd5b9392505050565b8280546122519061303e565b90600052602060002090601f01602090048101928261227357600085556122ba565b82601f1061228c57805160ff19168380011785556122ba565b828001600101855582156122ba579182015b828111156122b957825182559160200191906001019061229e565b5b5090506122c791906122cb565b5090565b5b808211156122e45760008160009055506001016122cc565b5090565b60006122fb6122f684612dd8565b612da7565b90508281526020810184848401111561231357600080fd5b61231e848285612ffc565b509392505050565b60008135905061233581613186565b92915050565b60008135905061234a8161319d565b92915050565b60008151905061235f8161319d565b92915050565b600081359050612374816131b4565b92915050565b600082601f83011261238b57600080fd5b813561239b8482602086016122e8565b91505092915050565b6000813590506123b3816131cb565b92915050565b6000815190506123c8816131cb565b92915050565b6000602082840312156123e057600080fd5b60006123ee84828501612326565b91505092915050565b60006020828403121561240957600080fd5b600061241784828501612350565b91505092915050565b60006020828403121561243257600080fd5b600082013567ffffffffffffffff81111561244c57600080fd5b6124588482850161237a565b91505092915050565b6000806040838503121561247457600080fd5b600083013567ffffffffffffffff81111561248e57600080fd5b61249a8582860161237a565b92505060206124ab85828601612326565b9150509250929050565b600080604083850312156124c857600080fd5b600083013567ffffffffffffffff8111156124e257600080fd5b6124ee8582860161237a565b92505060206124ff858286016123a4565b9150509250929050565b60008060006060848603121561251e57600080fd5b600084013567ffffffffffffffff81111561253857600080fd5b6125448682870161237a565b9350506020612555868287016123a4565b92505060406125668682870161233b565b9150509250925092565b60006020828403121561258257600080fd5b6000612590848285016123a4565b91505092915050565b6000602082840312156125ab57600080fd5b60006125b9848285016123b9565b91505092915050565b600080600080608085870312156125d857600080fd5b60006125e6878288016123a4565b94505060206125f787828801612365565b93505060406126088782880161233b565b925050606085013567ffffffffffffffff81111561262557600080fd5b6126318782880161237a565b91505092959194509250565b6000806040838503121561265057600080fd5b600061265e858286016123a4565b925050602061266f858286016123a4565b9150509250929050565b61268281612f5a565b82525050565b600061269382612e08565b61269d8185612e1e565b93506126ad81856020860161300b565b80840191505092915050565b6126c281612fb4565b82525050565b6126d181612fd8565b82525050565b60006126e282612e13565b6126ec8185612e29565b93506126fc81856020860161300b565b61270581613175565b840191505092915050565b600061271b82612e13565b6127258185612e3a565b935061273581856020860161300b565b80840191505092915050565b600061274e601283612e29565b91507f496e7375666963656e742062616c616e636500000000000000000000000000006000830152602082019050919050565b600061278e601f83612e29565b91507f616d6f756e7420626967676572207468616e20436865662042616c616e6365006000830152602082019050919050565b60006127ce602683612e29565b91507f4f776e61626c653a206e6577206f776e657220697320746865207a65726f206160008301527f64647265737300000000000000000000000000000000000000000000000000006020830152604082019050919050565b6000612834601b83612e29565b91507f536166654d6174683a206164646974696f6e206f766572666c6f7700000000006000830152602082019050919050565b6000612874602683612e29565b91507f416464726573733a20696e73756666696369656e742062616c616e636520666f60008301527f722063616c6c00000000000000000000000000000000000000000000000000006020830152604082019050919050565b60006128da602183612e29565b91507f536166654d6174683a206d756c7469706c69636174696f6e206f766572666c6f60008301527f77000000000000000000000000000000000000000000000000000000000000006020830152604082019050919050565b6000612940602083612e29565b91507f4f776e61626c653a2063616c6c6572206973206e6f7420746865206f776e65726000830152602082019050919050565b6000612980601583612e29565b91507f63616e6e6f7420636c61696d20302072657761726400000000000000000000006000830152602082019050919050565b60006129c0601d83612e29565b91507f416464726573733a2063616c6c20746f206e6f6e2d636f6e74726163740000006000830152602082019050919050565b6000612a00601283612e29565b91507f77697468647261773a206e6f7420676f6f6400000000000000000000000000006000830152602082019050919050565b6000612a40602a83612e29565b91507f5361666545524332303a204552433230206f7065726174696f6e20646964206e60008301527f6f742073756363656564000000000000000000000000000000000000000000006020830152604082019050919050565b612aa281612faa565b82525050565b6000612ab48284612688565b915081905092915050565b6000612acb8284612710565b915081905092915050565b6000602082019050612aeb6000830184612679565b92915050565b6000606082019050612b066000830186612679565b612b136020830185612679565b612b206040830184612a99565b949350505050565b6000604082019050612b3d6000830185612679565b612b4a6020830184612a99565b9392505050565b6000608082019050612b6660008301876126b9565b612b736020830186612a99565b612b806040830185612a99565b612b8d6060830184612a99565b95945050505050565b6000602082019050612bab60008301846126c8565b92915050565b60006020820190508181036000830152612bcb81846126d7565b905092915050565b60006040820190508181036000830152612bed81856126d7565b9050612bfc6020830184612a99565b9392505050565b60006020820190508181036000830152612c1c81612741565b9050919050565b60006020820190508181036000830152612c3c81612781565b9050919050565b60006020820190508181036000830152612c5c816127c1565b9050919050565b60006020820190508181036000830152612c7c81612827565b9050919050565b60006020820190508181036000830152612c9c81612867565b9050919050565b60006020820190508181036000830152612cbc816128cd565b9050919050565b60006020820190508181036000830152612cdc81612933565b9050919050565b60006020820190508181036000830152612cfc81612973565b9050919050565b60006020820190508181036000830152612d1c816129b3565b9050919050565b60006020820190508181036000830152612d3c816129f3565b9050919050565b60006020820190508181036000830152612d5c81612a33565b9050919050565b6000602082019050612d786000830184612a99565b92915050565b6000604082019050612d936000830185612a99565b612da06020830184612a99565b9392505050565b6000604051905081810181811067ffffffffffffffff82111715612dce57612dcd613146565b5b8060405250919050565b600067ffffffffffffffff821115612df357612df2613146565b5b601f19601f8301169050602081019050919050565b600081519050919050565b600081519050919050565b600081905092915050565b600082825260208201905092915050565b600081905092915050565b6000612e5082612faa565b9150612e5b83612faa565b9250827fffffffffffffffffffffffffffffffffffffffffffffffffffffffffffffffff03821115612e9057612e8f6130b9565b5b828201905092915050565b6000612ea682612faa565b9150612eb183612faa565b925082612ec157612ec06130e8565b5b828204905092915050565b6000612ed782612faa565b9150612ee283612faa565b9250817fffffffffffffffffffffffffffffffffffffffffffffffffffffffffffffffff0483118215151615612f1b57612f1a6130b9565b5b828202905092915050565b6000612f3182612faa565b9150612f3c83612faa565b925082821015612f4f57612f4e6130b9565b5b828203905092915050565b6000612f6582612f8a565b9050919050565b60008115159050919050565b6000612f8382612f5a565b9050919050565b600073ffffffffffffffffffffffffffffffffffffffff82169050919050565b6000819050919050565b6000612fbf82612fc6565b9050919050565b6000612fd182612f8a565b9050919050565b6000612fe382612fea565b9050919050565b6000612ff582612f8a565b9050919050565b82818337600083830152505050565b60005b8381101561302957808201518184015260208101905061300e565b83811115613038576000848401525b50505050565b6000600282049050600182168061305657607f821691505b6020821081141561306a57613069613117565b5b50919050565b600061307b82612faa565b91507fffffffffffffffffffffffffffffffffffffffffffffffffffffffffffffffff8214156130ae576130ad6130b9565b5b600182019050919050565b7f4e487b7100000000000000000000000000000000000000000000000000000000600052601160045260246000fd5b7f4e487b7100000000000000000000000000000000000000000000000000000000600052601260045260246000fd5b7f4e487b7100000000000000000000000000000000000000000000000000000000600052602260045260246000fd5b7f4e487b7100000000000000000000000000000000000000000000000000000000600052604160045260246000fd5b6000601f19601f8301169050919050565b61318f81612f5a565b811461319a57600080fd5b50565b6131a681612f6c565b81146131b157600080fd5b50565b6131bd81612f78565b81146131c857600080fd5b50565b6131d481612faa565b81146131df57600080fd5b5056fea2646970667358221220ac0e35ce833796f50c793bb88f59e6e10f3d886f0972ca597a9b3fa426598f6864736f6c63430008000033",
  "linkReferences": {},
  "deployedLinkReferences": {}
}